:020000040800F2
:1000000040200010B11D0008AD1D0008AD1D000806
:10001000AD1D0008AD1D0008AD1D0008000000006A
:100020000000000000000000000000004917000868
:10003000AD1D000800000000AD1D0008750200089D
:10004000AD1D0008AD1D0008AD1D0008AD1D000868
:10005000AD1D0008AD1D0008AD1D0008AD1D000858
:10006000AD1D0008AD1D0008AD1D0008AD1D000848
:10007000AD1D0008AD1D00080D200008AD1D0008D5
:10008000BD1B0008351B0008AD1D0008AD1D000894
:10009000AD1D0008AD1D0008AD1D0008AD1D000818
:1000A000AD1D0008AD1D0008AD1D0008AD1D000808
:1000B000AD1D0008AD1D0008AD1D0008AD1D0008F8
:1000C000AD1D0008AD1D0008AD1D0008AD1D0008E8
:1000D000AD1D0008AD1D0008AD1D0008AD1D0008D8
:1000E000AD1D0008AD1D0008AD1D0008AD1D0008C8
:1000F000AD1D0008AD1D0008AD1D0008AD1D0008B8
:10010000AD1D0008AD1D0008AD1D0008AD1D0008A7
:10011000AD1D0008AD1D0008AD1D0008AD1D000897
:10012000AD1D0008AD1D0008AD1D0008AD1D000887
:10013000AD1D0008AD1D0008AD1D0008AD1D000877
:10014000AD1D0008AD1D0008AD1D0008AD1D000867
:10015000AD1D0008AD1D0008AD1D0008AD1D000857
:10016000AD1D0008AD1D0008AD1D0008AD1D000847
:10017000AD1D0008AD1D0008AD1D0008AD1D000837
:10018000AD1D0008AD1D000810B5054C237833B92E
:10019000044B13B10448AFF300800123237010BD5A
:1001A0002002002000000000347D000808B5034B49
:1001B0001BB103490348AFF3008008BD00000000F5
:1001C00024020020347D0008154B002B08BF134B80
:1001D0009D46A3F5803A00218B460F461348144AEA
:1001E000121A07F0A8F90F4B002B00D098470E4BBE
:1001F000002B00D098470020002104000D000D487E
:10020000002802D00C48AFF3008007F055F9200019
:10021000290000F063F807F03BF900BF0000080078
:10022000402000100000000000000000200200201C
:10023000182A0020000000000000000008B5BFF3ED
:100240004F8FBFF36F8F094A0949136809688B42C2
:1002500006D30123136072B600F026F862B608BD1B
:10026000591C1160002BF6D008BD00BF641000209F
:1002700060100020EFF3008001B5EFF3118003B4AC
:10028000054B93F8233003F0F003103383F3118808
:10029000024801F041BA00BF00ED00E03D02000855
:1002A000704700BF704700BF10B50A4C23785A1C36
:1002B000227023B1084A23700123136010BD62B677
:1002C00001F02AFF72B62378013B2370BDE810408D
:1002D00001F012BA400200203C0200202DE9F04358
:1002E0003C4E3D4D0024347083B02C7001DF72B65B
:1002F000DFF8EC8004F034F804F0E2F9FFF7D2FF05
:10030000D8F800904F462146204647F8384B01F078
:10031000FDF903F045FD62B6384602AF01F0F4F98D
:10032000012001F0EDF907F8014D01213A46D9F815
:10033000040001F09FF99DF8073013B1012389F8FB
:10034000403001F0E7F972B69FED240AFFF7A8FFED
:10035000D8F800301A68002A35D000232B7062B616
:1003600062B62B782BB3D8F800404FF000094FF05D
:10037000010808E086F800803378B3FA83F35B095C
:100380002B702B78ABB18DF8079060683A4601214D
:1003900001F0A0F99DF807300BB184F84080236884
:1003A000002BE7D194F84030003318BF012333709D
:1003B000E2E703F091FD012001F0A4F972B60020FC
:1003C00003B0BDE8F08393F84030B3FA83F35B09E0
:1003D000C4E700BF42020020410200200AD7233CAC
:1003E000307B00082DE9F0410446487884B010B90C
:1003F00004B0BDE8F08100230D4640F2033247F619
:100400007E6121802282C4E90533E36184F82030D3
:1004100002222146284601F02FFC0028E8D1A378CB
:10042000032B00F09780A3F17D02012A40F2928015
:10043000012204AF284607F8083D394601F01CFCAC
:100440000028D5D163682A780193D9B27AB9C3F369
:100450000760C3F30742C3F307238DF803108DF839
:1004600000008DF801208DF80230009B01939DF86B
:100470000410032907D0A1F17D03012B03D90DF14D
:100480000906042207E081F020018DF809100DF122
:100490000A067D2105229DF805308DF80810032BF2
:1004A00005D0A3F17D01012901D9701C05E083F07D
:1004B000200373700132B01C7D239DF80610337049
:1004C000032905D0A1F17D03012B01D9461C05E0CC
:1004D00081F0200141700132861C7D219DF807309A
:1004E0000170032B03D0A3F17D01012904D883F00F
:1004F0002003737001327D2339463370284601F0A2
:10050000BBFB00287FF474AF636853B306464FF01B
:100510007D080DE08DF8082001223946284601F0BB
:10052000ABFB013600287FF463AF6368B34218D990
:10053000A3689A5D032AA2F17D01334401D0012909
:10054000E8D88DF808801B7883F020038DF80930F7
:100550000222E2E783F020038DF8093002227D2396
:1005600067E704F110012846022201F085FB3FE70E
:100570002DE9F04383B04A7800238DF803300193CE
:10058000002A00F0D480C0E905330D4640F2033262
:1005900047F67E610446C36180F820300180028204
:1005A0004FF00108052700F1100901AB01220DF100
:1005B0000301284601F09AFB90BB019A012A40F002
:1005C000BD806369991E02290CD894F820609DF8BB
:1005D0000310002E00F0968081F020018DF80310AA
:1005E00084F82000052BE0D8DFE803F07E715C334F
:1005F0001D03E369012B00F2A7809DF80330032B54
:1006000040F0A280A269511CA1611370E36901331B
:10061000022BE361C9D100230622C4E90523E3616B
:1006200003B0BDE8F083E26963689A4280F08C8091
:10063000A3699DF80320591CA1611A70E3696268DF
:1006400001339342E361B0D10023C4E90579E3614A
:10065000ABE7E369032B77D8A3699DF80320591C06
:10066000A1611A70E3690133042BE3619DD12A78FB
:1006700063686AB9190E61F30702C3F3074161F3B6
:100680000F22C3F3072161F3174263F31F6213467E
:1006900000226360E261002B4DD0A3680422C4E90C
:1006A000052382E7E269002A4ED1A3699DF8031071
:1006B000581CA0611970E3690133012BE3617FF4D9
:1006C00074AF0321231DE261C4E905136DE79DF8B2
:1006D00003307E2B38D1A269137002220021A318A7
:1006E000E161C4E9052360E79DF803207E2A7FF4D9
:1006F0005CAFE36922700133621CC4F81480C4E962
:10070000062352E77D290FD07E2905D003297FF4E7
:1007100069AFC4E9056648E7E36921700133611CEC
:100720006261C4E9061340E784F820203DE7012018
:1007300003B0BDE8F083C4E9057936E7C4E90500F4
:10074000012003B0BDE8F08300230120C4E9053394
:1007500003B0BDE8F08300BF2DE9F041214CDFF884
:100760008C802268D8F80030904282B005460DDDBA
:1007700023B1184606F0CCFE00232360284606F07D
:10078000BFFE0346C8F80000C8B12560002D12DD89
:10079000154F002401AE05E0019AD8F8003014444A
:1007A000A54208DD23443246291B386800F00AFDC3
:1007B0000028F1D00023184602B0BDE8F081002DDA
:1007C000F8DD094F044601AE0DF103033246012165
:1007D000386800F0F7FC0028ECD1019B1C44A542CE
:1007E000F2DCE7E75402002048020020500200201B
:1007F0002DE9F04385B00A4680460F46014601A820
:1008000004F0ECFE019B002B20DD234E0025029B13
:1008100030682C0153F804901C44494662686B46CA
:1008200000F01EFE10B9009B994512D000231B4A10
:100830001B4C137018463946237004F017FB012037
:10084000394604F013FB306800F00CFF05B0BDE83A
:10085000F083D4F80890B9F1000F6B46494608DDE3
:10086000E268306800F0FCFD0028DFD1009B99456C
:10087000DCD1039B414653F8250004F025FB019B86
:1008800001359D42C3DB3A46414601A804F0A6FE6D
:10089000019B002BBADCD9E748020020430200206C
:1008A000440200202DE9F041054686B010460C4672
:1008B0001F46FFF751FF002855D01C2D50F8046B40
:1008C0001ED0024639462046334604F0C1F8DFF810
:1008D000C8800446D8F80000F4B90827394604AAAD
:1008E00001AB029403960495059700F0B9FD10B989
:1008F0000199B94227D00124204606B0BDE8F08115
:1009000001463246204604F0BFF9DFF88C800446E9
:10091000D8F80000002CE0D0082319460495059370
:10092000012504AA01AB0396029500F099FD002869
:10093000E2D101990829DFD104ABD8F8000002AA5E
:1009400000F08EFDD8E704ABD8F8000002AA00F052
:1009500087FD0028CFD1049C083C18BF0124204605
:1009600006B0BDE8F0810C4C0495012308214FF03E
:10097000FF3502932068059104AA01AB039500F0AE
:100980006FFD0028B7D101990829B4D104AB2068C4
:1009900002AA00F065FDAEE74802002070B5114DD7
:1009A00084B00C46029016460391286802AA01AB57
:1009B000082100F055FD10B9019B082B02D0012041
:1009C00004B070BD002EFBD002AB32462868214631
:1009D00000F046FD0028F2D10298001B18BF01204C
:1009E00004B070BD4802002070B505460E4600F008
:1009F000E3FB0B4C206038B12946324600F06CFB1B
:100A0000054650B9284670BD064D0346184600F00D
:100A1000D7FB00232360284670BD2368F6E700BF9C
:100A20004802002004770008014B186800F0C2BBA0
:100A30004802002038B5094C237803B938BD014677
:100A400005460020FFF7D4FE2378002BF6D0294678
:100A50000120BDE83840FFF7CBBE00BF44020020B4
:100A6000064B10B5186800F01BFB044620B903F0D4
:100A70007FFF012003F07CFF204610BD48020020CC
:100A8000024B0A460146186800F0EABD4802002001
:100A90002DE9F04FB24EB34D34782B688BB08046C1
:100AA0000F469146002C35D00024089400E02B68B6
:100AB000184604AB234408AAC4F1080100F082FBE5
:100AC000002834D1089BE41801D0072CEFDD002B5F
:100AD00025DDA54C2378002B3BD10493D8F80830B2
:100AE00028681E6808274FF0100B394606AB08AA85
:100AF000D6E9009ACDE908B700F0B2FC18B906991A
:100B0000082900F08F81002630460BB0BDE8F04F79
:100B100006F0FEBC1846314600F0C4FA10B10BB026
:100B2000BDE8F08F3378002BF9D02B68BCE78E4AF4
:100B30000023337018463946137004F097F939468C
:100B4000012004F093F9286800F08CFD0BB0BDE89B
:100B5000F08F049B0F2BE2D801A252F823F000BFC4
:100B6000DD0A0008710C0008ED0C00081F0B0008DE
:100B7000610C0008F90C0008DF0C0008510C00089B
:100B8000310C0008BD0B0008A10B0008290C00085F
:100B90001F0B00081F0B00081F0B0008010C0008AA
:100BA000724B2868012116250024196008AA06AB9B
:100BB0000821CDE9085400F053FCB0E70598FFF791
:100BC000CBFD002800F00F810468204604F062F994
:100BD0000822114600201E260992069003AB2868C1
:100BE000079408AA089600F03BFC002897D10399C7
:100BF000082994D108AB286806AA00F031FC8EE7DA
:100C0000D8F80C302868D3E900670822114615246B
:100C1000099203AB08AACDE90667089400F020FC0E
:100C200000287FF47CAFE2E7012389F8003076E703
:100C30000598FFF791FD002800F0E0800468394630
:100C4000204604F0E5F80822114600201D26C3E7DF
:100C500041464FF0FF33059A1C20FFF723FE5EE765
:100C60000598002840F0A480414B01221A7056E7F5
:100C700011204FF0000C089008AA06AB0821286844
:100C8000CDF824C000F0ECFB814600287FF447AF8C
:100C9000069B082B7FF443AF364B93F8008003F09C
:100CA000C3FEB8F1000F00F096803378002B40F0BF
:100CB000F2803946002003F0ABFE012003F0B4FEC1
:100CC0003378002B40F0F4803946012003F0A0FE79
:100CD000002328683370237000F0ECF91FE73B46CF
:100CE0004146059A1B20FFF7DDFD18E70023184653
:100CF00033703946237020E7D8F8083028681B681D
:100D0000D3F81080B8F1000F00F08380D8F800907D
:100D10005F68B9F1000F40F3BC80D8F804300021BF
:100D200003EB09165A68DC6857F8222010339E42FC
:100D300004FB0211F6D11324099106AB08AA08217D
:100D4000089400F08DFB00287FF4E9AE069B082B89
:100D50007FF4E5AEB9F1000F7FF7E1AE044613E092
:100D6000440200204802002043020020BC02002070
:100D70004C020020640F0020089B9E427FF4CFAEFF
:100D80000134A1453FF4CBAED8F804102868220105
:100D90008B188A585968DE6857F8213006FB03F62D
:100DA000314608AB00F05CFB00287FF4B8AEE3E707
:100DB000FFF7D2FC0146002872D0404603F090FDB8
:100DC000002308AA042112200893FFF7E7FD00285A
:100DD0003FF44AAFA3E64046394603F019FE01202E
:100DE00003F022FE70E701244FF0FF3308AA082128
:100DF0001E20CDE90843FFF7D1FD90E601244FF016
:100E0000FF3308AA08211D20CDE90843FFF7C6FDDE
:100E100085E6132408AA06AB0821CDE9084800F0AE
:100E20001FFB7CE6376801910837BF00384606F0A3
:100E300067FB064600283FF466AE08AA01992868B9
:100E400006ABCDE908B700F00BFB00287FF45CAEE1
:100E5000069B082B7FF458AED8F804301E491A6858
:100E600032605A6872609A68B26091F800C0DB68BC
:100E7000F360324604213061C6E9051C42F81C9F2C
:100E80000346994519DD5AF8231042F8041F01332F
:100E9000F7E700214FE748463946FFF7A9FC08E786
:100EA000012308AA042112200893FFF777FD36E6F4
:100EB00039460120FFF79CFC06E706AB286832465E
:100EC000394600F0CDFA00287FF41EAE069B9F4203
:100ED00004BF0123237017E6000000202DE9F04134
:100EE0000024254D254E84B00746204603F09CFD86
:100EF0002B78A04633BB2046394603F089FD306885
:100F000018B106F005FBC6F80080A4B11C4F1D4EB9
:100F10003C783068DCB92B7823B11B4A01210023CF
:100F200011702B7000F0CCF8306800F049F92046C1
:100F300004B0BDE8F0810124204603F075FD2B7854
:100F4000002BD8D039462046FFF752FCD3E71421B6
:100F50000024029101AB02AA0821039400F080FA58
:100F6000044620B1012400233B703068D3E7019B85
:100F7000082BF7D1F7E700BF440200205002002001
:100F800043020020480200200000002010B5014666
:100F90000446002004F0BEFA21460120BDE81040BE
:100FA00004F0B8BA08B5002004F002FB0120BDE847
:100FB000084004F0FDBA00BF10B52DED028BB0EE75
:100FC000408AF0EE608A0021044603F09BFFB0EEF9
:100FD000480AF0EE680ABDEC028B20460121BDE80C
:100FE000104003F08FBF00BF2DE9F843254D264F79
:100FF00028683E6838B1846C2C604CB106F088FAE1
:1010000020460028F7D136B1846C2C60002CF5D135
:101010003C6006F07DFA1D4EDFF87C903068D9F810
:10102000008038B1846C34605CB106F071FA2046FF
:101030000028F7D1B8F1000F05D0846C3460002C83
:10104000F3D106F065FADFF85480114CD8F80800A7
:1010500006F05EFA24220021404606F06CFAA068F1
:1010600006F056FA24222046002106F064FA094AC6
:1010700000231370C9F8003033603B602B60BDE87B
:10108000F88300BF580200205C02002060020020AC
:1010900094020020B80200206402002070020020A8
:1010A000002070474368003318BF01230B700020F5
:1010B000704700BF014B00221A707047B802002031
:1010C00038B545683DB10446FFF78EFF284600F06D
:1010D000B9FD0023636038BD01292DE9F0470F46B3
:1010E0008146904656DD151F2C4E05EB81051446B2
:1010F0004FF0000A54F8043F314618462BB106F071
:10110000E9FA10B920604FF0010AA542F2D189F83E
:1011100000A000F065FD0646002835D0FFF764FF0B
:10112000402006F0EDF91E4B986068B3402420463D
:10113000DC6006F0E5F91B4B986028B31A4DDFF828
:1011400070A0DC6005244C21012006F093F9D8B191
:10115000DAF800202B6882B1986400232860836449
:10116000013CF0D142463946304600F03FFD58B9C7
:10117000C9F804602046BDE8F087002BECD1286058
:10118000CAF800008364EBE70023C9F8043007487D
:10119000BDE8F0874FF0000AB9E700BF68770008A4
:1011A00094020020700200205C02002040770008BA
:1011B00058020020007870470048704768020020FD
:1011C000704700BF2DE9F04F9E4D46682C6887B0F0
:1011D000174601910293D4B1D4E91023D21A019B8E
:1011E00002989A42A8BF1A463A60616C214406F000
:1011F00097F9D4E9102339680B449342636400F0F3
:1012000083804FF00009484607B0BDE8F08FDFF853
:1012100048A2DAF80030002B63D0DFF840B2DFF8E4
:101220003C82039731464046FFF7A2F981460028E9
:10123000E9D19BF80220022A30D0834B1B68DBE9FE
:101240000141002B3FD09F6C7F4A1760002F45D093
:101250004FF00009C3F848902246184606F060F99E
:101260002A68DAF800100346C0E910490AB30020E2
:101270008B64CAF800309864B7B174480022022326
:10128000314642608370FFF7ADF881460028BAD13D
:101290002A68002AC6D01446039F9DE76C492A6835
:1012A0000870002ABED0F6E76A4B1B68002BE4D119
:1012B000EFE70029DBD18264CAF80000286002460B
:1012C000002FDAD1F0E7634A1268002ABBD1A146A9
:1012D00014464A4606F024F92464FFDE5D4A17608E
:1012E000B6E706A9804601F8013D304600F0D6FC7D
:1012F0008146002887D19DF817306BBB00234846F4
:101300003B6007B0BDE8F08FDFF83CC15148DCF826
:101310000020D0F800E0002A67D00027A36C2B60E3
:101320000021C4E91011002B63D00023A364002A1C
:1013300054D00023CEF848400460A364002F3FF44B
:1013400060AF424B00240222314618465C609A701E
:10135000FFF748F8814656E7DFF800B131465846B6
:10136000FFF706F9002847D19BF80230022B45D041
:10137000DFF8D4C0DBF80420DCF80030DBF808101C
:101380000392002B4BD09C6CCCF80040002C56D024
:1013900000229A641846039A06F0C2F800222968CF
:1013A0004264039A02640346DAF8002000293FD021
:1013B00000219364CAF8003099645CB3234B002089
:1013C00002225860314618469A70FFF70BF8002841
:1013D000C0D12C68B4B1D8F80460FDE6BEF1000FAE
:1013E000A7D10460CCF80040A8E7BEFA8EF77F09C9
:1013F00094E719490B6098E7814604E7144B83F89A
:101400000090E6E7DAF80030002B3FF477AFD8F829
:10141000046004E70F4B1B68002BCFD1D9E70D4ABE
:101420001468002CAFD1039A06F07AF82464FFDE2A
:10143000002ABDD1CAF8000028608264BDE7054AD1
:101440001460A5E7600200205802002094020020EA
:10145000B80200205C02002064020020700200201C
:101460002DE9F04F89B0CDE904230B1E47680393A3
:1014700040F3D780DFF8DCA11A46122A9AF8003030
:1014800028BF12220292002B00F0D9800023019382
:101490004FF000094E460DF11F0138468DF81F60D0
:1014A00000F0FCFB034600286DD19DF81F306BBB9C
:1014B000644D654C2B682268002B68D04FF0000902
:1014C0009AF80030002BE6D1DDE901625F4D049B04
:1014D000A8686A60991901249046AC7006F020F85B
:1014E00039462846FEF77EFF034600284BD1334697
:1014F00003998AF8004043449942019340F3918054
:10150000CB1A122B28BF12230293C1E7DFF84881C0
:1015100039464046FFF72CF80346002833D198F8A7
:1015200002C0484D484C2B682268BCF1020F36D0EF
:10153000D8E901B1002B61D0D3F84880C5F800800C
:10154000B8F1000F6AD09E645A46184605F0E8FFCD
:1015500003463F48DFF804C10268DCF80010C3E925
:1015600010B6002A53D08B64CCF800309E64B8F1DA
:10157000000F17D035480223394683704660FEF7C6
:1015800031FF034690B1184609B0BDE8F08F002A3C
:1015900094D1B9F1C70F0CDC09F1010990E78AF881
:1015A000000089E72368002BE4D1F2E72B6822686A
:1015B00082E74FF005084C21012005F05BFF002871
:1015C00038D02A6823689AB1986420608664B8F19C
:1015D0000108F0D11D4A0223394610469370C2F823
:1015E0000480FEF7FFFE034600283FF467AFCAE71A
:1015F000002BE9D1206028608364E8E7002A9BD1B2
:1016000090465A4605F08CFFC8F84080FFDE00295E
:10161000A9D1CCF8003003609964A8E7C4F8008031
:1016200091E7059B1A46039B13600023184609B0F7
:10163000BDE8F08F0123184609B0BDE8F08F019393
:101640001E4643E7580200205C020020940200205E
:1016500060020020B8020020700200206402002016
:10166000704700BF10B50446406800F0EBFA002355
:10167000636010BD2DE9F04106460D461446FFF7A4
:10168000D3F9C0B1104F3B68ABB923789BB9DFF8F1
:10169000408001E0237873B941460020FFF7F0F95C
:1016A000224629463046FFF7F3F92846FFF7C2F9EC
:1016B0003B68002BEED0054B1A78042A1CBF03228E
:1016C0001A70BDE8F08100BFBC02002000000020BD
:1016D000D8B80500064B10B51C78042C07D00C4672
:1016E000FFF7D6F92046BDE81040FFF7A3B910BDBB
:1016F00000000020FFF760BCFFF754BCFFF746BCBA
:10170000FFF7AEB9FFF7EABB704700BF00210846FC
:10171000FFF76AB9704700BF1EF0100F08BFB0EEA8
:10172000400A03B488B004A006904FF08070079080
:101730007FF006008646704703BC8047BFF36F8F7B
:1017400000DFFEE700BF00BF1EF0100F08BFB0EEC5
:10175000400A1EF0040F0CBFEFF30880EFF309807E
:10176000816911F8020C10B101280DD00BE01EF0B8
:10177000100F0CBF1AB008B003BC80F3118803BC73
:1017800080F300880847FEE74EF61451CEF20001C0
:101790000A6842F001020A607047F4E700BF00BF28
:1017A000F0B40178C378012401F01F0294404D0980
:1017B0002BB920350F4B43F82540F0BC70470E4B3A
:1017C0004678DB6882780B4FD843C0F30220C0F123
:1017D0000403DBB29E400F230341F6B213403343B0
:1017E00039441B01DBB281F8003347F82540F0BCD7
:1017F000704700BF00E100E000ED00E000000000E5
:101800009FED010B704700BF000000000000F07F5B
:101810009FED010A704700BF0000807F00000000BC
:101820009FED010B704700BF000000000000F0FFBB
:101830009FED010A704700BF000080FF000000001C
:101840009FED010B704700BF000000000000F8FF93
:101850009FED010A704700BF0000C0FF08B5FFF709
:10186000EFFF0E4B83ED000BFFF7F2FF0C4B83ED08
:10187000000AFFF7C5FF0B4B83ED000BFFF7C8FF16
:10188000094B83ED000AFFF7CBFF084B83ED000BFC
:10189000FFF7CEFF064B83ED000A08BD781000204D
:1018A00068100020701000206C10002080100020B4
:1018B000881000200A4BD3ED007AF4EE407AF1EE66
:1018C00010FA0AD0074BD3ED007AF4EE407AF1EE2D
:1018D00010FA0CBF0120002070470120704700BFA4
:1018E0006C1000208810002010EE100A00F0FF435A
:1018F000B3F1FF4F01D000207047C0F31600003055
:1019000018BF0120704700BF2DE9F043614D624CC4
:10191000624B634A63482B6093B000230121AB8084
:101920002260A380E380636402F07CFD4FF400300A
:10193000012102F083FD5C48064602F025FB30469B
:1019400002F006FC03460028F9D1296806930893A3
:10195000CDE90A330E93CDE91033544A05914FF483
:1019600000654FF4806303A90795049209934FF42F
:101970004032032312AF4C480D924FF000664FF4F3
:10198000807503960C950F9302F094FB484B47F833
:10199000443D3846FFF704FF012210214248454DDF
:1019A00002F0DAFB40480121064602F0AFFB02E0FC
:1019B00015F1FF3569D3304602F0CAFB0128F7D193
:1019C000002D62D03C48064602F0DEFA304602F0B6
:1019D000BFFB05460028F9D12168344A374BE26045
:1019E0004FF040084FF0006001264FF44032A060F5
:1019F000C4E904184FF003094FF4806103A8216281
:101A000022630393E561C4E90955E5626563C4E9AE
:101A10000F55A661C4F83890FFF7C2FE384602F0B1
:101A20004BFC274B274839460C22CDE9012302F015
:101A3000F5FB07220221234802F04AFC494607220F
:101A4000204802F045FC03A802F07AFD4FF4402341
:101A500003A94FF4E1221C480593CDE90325ADF815
:101A6000185002F00DFD32464146174802F07EFD47
:101A700032468021144802F079FD3146124802F0C6
:101A800069FD304613B0BDE8F083104B4FF0FF32D4
:101A90001A60FEE7C4020020CC02002014030020DC
:101AA000140B002001002000886002400444004024
:101AB0001000000140420F00A06002401100000130
:101AC000020200010000024000440040C002002069
:101AD000002070472DE9F041884615461F461348FF
:101AE00002F036FB04460028F9D1114EB5F5806F9F
:101AF00028BF4FF480652A464146306805F010FD46
:101B000033680A48336106F10801B56102F0D2FA80
:101B100001221021054802F01FFB0121034802F0B9
:101B2000F5FA3D602046BDE8F08100BFA0600240AC
:101B3000CC02002008B50649064802F02DFB00B98A
:101B400008BD03490348BDE8084002F04FBB00BF91
:101B500000802020A0600240F8B516480C461546CB
:101B60001F4602F0DDFA14498B88C0F500609842E8
:101B70008B88B6BFC3F50063C01AC018A84214D33F
:101B800088880E6880B245B16319325C04F8012B75
:101B900001309C42C0F30A00F7D18A883D601544A9
:101BA000C5F30A058D800020F8BD00233B600020AE
:101BB000F8BD00BF88600240C402002008B5064995
:101BC000064802F0E9FA00B908BD03490348BDE838
:101BD000084002F00BBB00BF008800208860024074
:101BE0000148012303807047180F00202DE9F047BA
:101BF000447814B10120BDE8F0870E460546102157
:101C00000120904605F036FCDFF834900746C9F80D
:101C100000000028EED04FF0010A4146304685F81A
:101C200001A0BC81FFF770FED9F8003038601B6856
:101C3000013306BF6C7050462046BDE8F08700BFF8
:101C4000140F002038B543780BB9012038BD094D79
:101C500000222B6842701868FFF73AFF0446286894
:101C600008B105F055FCA4F1FF30B0FA80F040094E
:101C700038BD00BF140F002008B543780BB9012010
:101C800008BD054B1B68186800F060F8A0F1FF3034
:101C9000B0FA80F0400908BD140F002070B582B082
:101CA0004378002001903BB10F4E33681D7B35B166
:101CB00001230B7002B070BD012002B070BD0D7029
:101CC00018680C460822191D01ABFFF745FF0130CB
:101CD000F2D0019B33B13268012121702846137381
:101CE0005573EAE71846E8E7140F0020F8B500241A
:101CF0001C60407880B11746134A15682C7B1E463D
:101D00000B465CB93A461946286800F037F80130AE
:101D100002D037600020F8BD0120F8BD697BBC42CD
:101D200028BF3C46043129442246184605F0F8FBFA
:101D3000697B0346287BE2B2801A114423443A1B94
:101D400028736973DFE700BF140F002070B51446D5
:101D500082B082B106460D4603E0019BE41A1D44A1
:101D600007D001AB224629463046FFF7B3FE431C9D
:101D7000F3D102B070BD1046FBE700BF70B514464A
:101D800082B082B106460D4603E0019BE41A1D4471
:101D900007D001AB224629463046FFF7DDFE431C43
:101DA000F3D102B070BD1046FBE700BFFEE700BFF5
:101DB00008B50D480D4B984207D2C2431A4422F091
:101DC000030204320A4905F0ABFB0A480A494FF006
:101DD00000028842B8BF40F8042BFADB02F0F2FBA5
:101DE000BDE80840FEF7F0B9000000201C0200200A
:101DF0003C7D000820020020182A002070B505460E
:101E00000E460020094CAD0102F0B8FA45EA06750D
:101E1000002002F001FBC4F88450012002F0AEFA69
:101E2000224613681B01FCD570BD00BF003802407C
:101E3000F8B52A4CA5682D0203D5A56825F4000540
:101E4000A560264F264ED7F88440D7F884507F6887
:101E500012FB01F100FB01F007EE900AC4F38811B8
:101E6000B8EE677AC5F3027407F03F07B6FBF7F5E3
:101E700001FB05F1B1FBF4F107EE901AF8EE677A79
:101E8000C7EE876A4BB1102AF2EE007AB1EE007A03
:101E900018BFF0EE477AC6EEA76A16EE900A04F075
:101EA00071FF00220F4B04F00FFE05F073FA420899
:101EB00093B2012B00F001000DD9FF2B04D8069B33
:101EC0001A70079B1870F8BDFF2206990A70079ACE
:101ED00000231370F8BD0222F7E700BF003802406C
:101EE00000127A000000E03FF0B45E881C889F88F2
:101EF000DD88344344F400649E8944EA0703848BFC
:101F000045EA0222334323430A430284F0BC83831D
:101F1000704700BF10B5BFF34F8FBFF36F8F094CF1
:101F2000204602F011F950B1E068074B50221968C1
:101F300003F0F8FB72B6FEF7B7F962B610BD206980
:101F4000F3E700BF586002408C150020F0B507464B
:101F500091B04FF400100D46012102F063FA2648BB
:101F600002F012F8244802F0F3F804460028F9D1F0
:101F7000224A02924FF480634FF400620793089262
:101F80004FF400534FF480721D4E09930A924FF4A0
:101F9000403304220DEB02010B9317480C920323EC
:101FA0000D930194CDE904470694CDE90E440396C0
:101FB00002F080F8224631460F4802F0BFF84FF495
:101FC000002210490C4802F0B9F801210A4802F039
:101FD000ABF801221021084802F0BEF82D010A4B8F
:101FE00005484FF48042EDB21A60012183F80E5388
:101FF00002F08CF811B0F0BD586002400C3800407F
:102000000C1300208C10002000E100E0EFF30080B2
:1020100001B5EFF3118003B4094B93F80E3303F0CD
:10202000F003103383F311880649074802F0B4F82F
:1020300000BF0548034902F0D9F80448FFF76CBB1C
:1020400000E100E00080001858600240151F000801
:102050002DE9F04188B02C4A0E992C4F11600646AC
:1020600001210620984640F2022502F0DBF9284CB7
:1020700005954FF48063384604A9049302F0CEF826
:10208000384605220A2102F023F9082704A9204630
:10209000CDE9047502F0C2F820460522032102F0C2
:1020A00017F901214FF4804002F0C8F900250DF125
:1020B0000F010DF10E030122A4F5E8340191009304
:1020C000B0012B4611460595124DADF81C700696D1
:1020D0000495FFF7ADFE04AB20469DF80F209DF858
:1020E0000E10FFF701FF01221146204602F0BEF953
:1020F0002046012102F0AEF941464FF4A070FFF7EF
:1021000025FF08B0BDE8F0818C15002000040240D6
:1021100000080240000320002DE9F04FE54BE64A9D
:102120002DED088BA3F59F75A3F6FE3A92ED007A8C
:1021300095B02A460AF69E4133F9020F07EE900A3F
:10214000F8EEE77A994267EE877AE2EC017AF3D10A
:10215000DA4C94F8E465002E01F06280D4EDA07AA8
:10216000B7EE007A04F2BC5377EE877A11939FEDB5
:10217000D47AC4EDA07A0AF54063D5ED007A67EE13
:10218000877AE5EC017AAB42F7D1CE4ACE48CF4E02
:1021900050252B4602F5A071CAF8A85D03F0AAFBF2
:1021A0004FF42072C549CA4805F0BAF9C5494FF441
:1021B000A072A1F5E06005F0B3F9C64B314603F516
:1021C00070705246B3EC017AF2EC017A67EE277A2E
:1021D0008342E1EC017AF5D1F020BF4DCAF8A80D99
:1021E0000AF57077DFEDBD7A60B1A5F50E6207EBF9
:1021F00080013346F3EC016AB2EC017A8B42E6EEE1
:10220000877AF7D10138E328E5EC017AEAD1B44BBB
:102210009FEDB45A93ED006A93ED017A53ED012AD4
:102220009FEDB14ADFEDB14ADFEDB15A9FEDB19AB2
:10223000DFEDB18A9FEDB18A9FEDB10ADFEDB10A02
:102240009FEDB11ADFEDB16ADFEDB11A9FEDB12A52
:10225000DFEDA29A9B46194618461E461F46994630
:10226000984604331D460C935B461833D1ED027A31
:1022700007935B461C3367EE857A08935B4608310B
:10228000203390ED033AD6ED043AC1ED007A26EE04
:10229000046A27EE247A97ED054ADBED064A0D9194
:1022A000099359465B462C31243385ED007A23EEA1
:1022B000253A0D469BED075A0A93129163EE893A2F
:1022C00007998BED006A5B4624EE284A64EE884A43
:1022D0000C30103614372833DBED085A9BED096AB1
:1022E0009BED0A7A0B93DBED0B7A0E900F9610970D
:1022F00080ED003A25EE005AC6ED003A87ED004A1F
:10230000C1ED004A089965EEA05A81ED005A09997D
:1023100062EEA66AC1ED005A26EE016A0A9945ED01
:102320000C6A81ED006A27EE217A67EE827A0B99BA
:10233000C5ED007AF4EE696A0D23F1EE10FADE467F
:10234000DC4681ED007ACAF8A83D40F01D8619EE02
:10235000905A5A465E4642F8805F0292624658465C
:1023600037465B4642F8845F4FF07E5146F8645F23
:1023700040F8685F47F86C5F4EF8705F48F8745F2C
:1023800049F8785F4BF87C5F43F8885F0392CCF89C
:102390006010D6ED004A93ED001AD0ED005A039B71
:1023A000D7ED006A93ED004A029B9EED003AD3ED13
:1023B000003A9BED008A98ED000A574BD9ED009A40
:1023C000564FDFED578AB7EE006A34EEC62AF0EEBC
:1023D000002A32EE012ABFEE005A32EE227AF0EEE7
:1023E000457AE7EE227A00225A6475EEC21A74EE3C
:1023F000864A71EE841A74EEC14A77EEA17A75EEC0
:10240000A45A97EEA27A1A464FF0000B35EEC44A52
:1024100036EEE11A74EE266A31EE231A76EEE33ACE
:1024200073EE410A37EE017A70EE880AD7EE227A0F
:1024300003F13C0003F1380633EE233A30EE609AA4
:1024400033EE483A39EE299A77EEA06A16EE101A62
:1024500033EE000AF6EE002A42F8181B76EEC76A41
:1024600029EE228A30EE690A83ED059A83ED0B0A84
:10247000C3ED040A83ED0A3A83ED031AC3ED093A6A
:10248000C3ED021A83ED084A83ED012AC3ED074A22
:1024900083ED106A82ED006A03F1340C03F1300E13
:1024A000F0EE465A76EE886AF0EE467A5A464023B7
:1024B00065E000BF5E28002084010020781600201F
:1024C00000000047E0250020781B0020202000208D
:1024D000601C00206C77000800290020000000002C
:1024E000042900205D747D3F46B77F3F94DD7E3F29
:1024F000047E7B3FDAFD783F11F8753FB271723F81
:102500008E706E3F2EFB693FC418653F4703803FC6
:1025100014D15F3F602C5A3FB81B00209029002047
:102520000000003D76EE029AB0EE457AA6EE297ADA
:1025300037EE21AAB0EE697A96EE0A7AB0EE4A9AA0
:1025400037EE017A96EE079A39EE206AB0EE479A96
:1025500097EE869A79EE08AA26EEAA9AB5EEC09A68
:10256000F1EE10FA00F14F84F0EE6A6AF0EE675A6D
:10257000BBF10A0F00F0F380013B00F0F08077EE32
:10258000E87A37EEA76A002ACCD074EE869AB0EECD
:10259000457AA6EE297A37EE04AAB0EE697A96EE6D
:1025A0000A7AB0EE4A9A37EE237A96EE079A39EE17
:1025B000036AB0EE479A97EE869AA0EE229AF0EE62
:1025C00049AA26EE899AB5EEC09AF1EE10FACBD55B
:1025D00037EEA5AAB0EE457A2AEE22AA20EE226AAC
:1025E0007AEE0A9A34EEA99AA9EE897A37EE047A3D
:1025F00097EE299A39EE239A99EE297A37EE037AE3
:1026000097EE0A9A39EE069A2AEE897AB5EEC07AE2
:10261000F1EE10FA40F2FA8575EE8AAAF0EE459ACC
:102620006AEEA2AA3AEEAABA34EE8B7AEBEE079AD9
:1026300079EE849A99EE8B7A37EE237AD7EE0B9A5D
:1026400079EE839A99EEAA7A37EE067A67EE099ABE
:10265000F5EEC09AF1EE10FA40F2CE853AEEA5AA58
:10266000F0EE459A2AEE22AA3AEE0ABA34EE8B9A96
:10267000E9EE0B9A79EE849A99EE8B9A39EE239AC9
:10268000D9EE0B9A79EE839A9AEE299A39EE069A48
:1026900069EE079AF5EEC09AF1EE10FA40F2A285C3
:1026A0007AEE25AAF0EE459A6AEEA2AA3AEEAABA06
:1026B00034EE8B7AE7EE0B9A79EE849A99EE8B7A68
:1026C00037EE237AD7EE0B9A79EE839A99EEAA7AAF
:1026D00037EE067A29EE076AB5EEC06AF1EE10FA17
:1026E00040F27685B0EE656AF0EE6A5A76EEC76A19
:1026F000F5EE406AF1EE10FA05D036EE656A86EE28
:10270000269AE9EE475A07EB8B010BF1010BC1ED5D
:10271000005A75EEA56A82F00101002A00F00184DA
:1027200076EE829AB0EE457AA9EEA67ABBF10A0F50
:102730000A4637EE21AAB0EE697A96EE8A7AB0EEB2
:102740004A6A37EE017A96EE876AF0EE476A36EE0D
:10275000206AD6EE256A76EE886A7FF40DAFDFF840
:10276000288486ED00AAC0ED009A8CED007A8EEDEB
:10277000006A0AF65856D8F8000004F003FB41EC52
:10278000100B03F071F951EC100B04F023FE48F824
:10279000040B4645EFD1BBF10A0F00F0CD854FEA9F
:1027A0008B03F918E44A0A60BBF1090FE34E00F00D
:1027B000C485F118BBF1080F0A6006F1040801F0A6
:1027C000BA8108EB0301BBF1070F0A6001F0B38186
:1027D00006F1080105911944BBF1060F0A6000F0EB
:1027E000B18506F10C0106911944BBF1050F0A6091
:1027F00001F0DD8106F1100102911944BBF1040FD3
:102800000A6001F0FE8106F1140103911944BBF145
:10281000030F0A6000F09F8506F118010191194429
:10282000BBF1020F0A60DFF8649301F0BA8109EB93
:102830000301C14A0A60BBF1000F41F0B28109F106
:1028400004010B4404911A600D4605990698029BF9
:10285000DFEDBB7A93ED005AD7ED002A96ED003AF2
:10286000D8ED003A91ED004AD0ED004A039A99ED77
:10287000007AD2ED005A019AD5ED001A92ED006A65
:10288000B04A82EEA72A0A23CAF8A83D029BC3EEEB
:10289000272A83EEA73AC4EE273A84EEA74AC5EE6C
:1028A000274A85EEA75AC6EE275A87EE276A81EE99
:1028B000A77AC3ED004AD2ED006A039B87ED002A98
:1028C00083ED005AF5EE406A019BC6ED002AF1EE59
:1028D00010FA4FF0000288ED003AC1ED003A80EDA9
:1028E000004AC3ED005A89ED006A85ED007A00F0D8
:1028F0003586B7EE006AC6EE267A93490C98934A5D
:10290000134651ED375A90ED007A67EEE57AB0EE56
:10291000465AA7EEE75AA5EEA77A25EE265AF0EE1C
:10292000475A86EE057AC1ED007A27EE657AE7EE22
:10293000877A17EE100A41F8040FE3EC017A83ED71
:10294000007A139102ED016ADFED818ADFF840B26F
:10295000C6EEA87AB2EE048A17EE900A04F012FAD4
:1029600041EC100B03F044F951EC100B04F032FD74
:102970000C9B1BED390A93ED007ADFED760A0D9B77
:102980009FED753A93ED002ADFED747A0E9BDFED33
:10299000742AD3ED001A0F9BDFED725AD3ED003A83
:1029A000109B9FED716A93ED004A079BDFED6F6A04
:1029B000D3ED004A089B9FED6E1A93ED005A099BD8
:1029C00020EE033A27EE207A22EE272A77EE037ACA
:1029D00061EEA22A72EE277A63EEA53A72EEA77A2A
:1029E00024EE064A73EEA77A64EEA64A74EE277ABE
:1029F00025EE015A74EEA77AD3ED005ADFED5D1A89
:102A00000A9BDFED5D6A93ED006A0B9B9FED5B1AFD
:102A10000BED2C7A65EEA15A75EE277A26EE266A22
:102A200075EEA77AD3ED006A129BDFED551A93ED90
:102A3000007A0BED2B2A66EE816A76EE277A27EE76
:102A4000217A76EEA77A5BED3A1A9FED4E2A4BED8E
:102A50002A2A77EE277A02EE900A77EEA77A62EEBC
:102A6000882AE1EE827A5B4612EE902AC7EEA87AB7
:102A700043F8B4290C22CAF8A82D83ED003A4BED97
:102A8000293A17EE900A0BED284A4BED274A0BED39
:102A9000265A4BED255A0BED246A4BED236A0BEDBC
:102AA000227A04F06FF941EC100B03F0A1F851EC1D
:102AB000100B04F08FFC97ED004AD4EDA18A96ED3F
:102AC000003A94EDA20AD4EDA37A059BD8ED003A22
:102AD000D3ED002AD4EDA40A069B94EDA51AD3EDFC
:102AE000004A029BD4EDA61A93ED005A039B94ED85
:102AF000A72AD3ED005A019B94EDA87A93ED006AC2
:102B0000D9ED006A049B34EE684A33EE403A24EE75
:102B1000044A23EE033A73EEE73A72EEE02A73EECC
:102B2000047A63EEA33A62EEA22A73EEA77A74EEF9
:102B3000C14A35EE615A2FE0DB0F4940942900204D
:102B4000DB0FC94000290020E02900201C1C0020C8
:102B5000000070439F38173EBB1F5B3ECABE8F3DCF
:102B60001AB4203C3725A5BCA7A5C3BCE57E72BC22
:102B700035EBA4BB779FFE38A4709C3A98C62C3ADC
:102B8000AF731D3996F1753E90290020B0290020C1
:102B9000E82900200000A04264EEA44A72EEA77A61
:102BA00025EE055A75EEC25A74EEA77A65EEA55A5F
:102BB00036EE476AD4EDA91A93ED007A94EDAA2A6D
:102BC0000BED0C4A75EE277A26EE066A75EEA77AAB
:102BD00076EEE16A04EE100A66EEA66A76EE277AD1
:102BE00037EE427A76EEA77A27EE077A24EE084A85
:102BF0005B4677EE277A14EE101A5A4643F8041F04
:102C000017EE901A07930BED0B3A4BED0A3A4BED8A
:102C1000092A42F8081F0892119A0BED037A002046
:102C200092ED007A4BED084A0BED075A4BED065A30
:102C30000BED056A4BED046AABF6A83301460AF5C5
:102C40004972B5EEC07AF1EE10FAF3EC017A1CD4B9
:102C5000B5EEC07AF1EE10FA04DDF5EEC07AF1EED1
:102C600010FA17D4F5EE407AF1EE10FA19D09A4224
:102C700001F02280B0EE677AB5EEC07AF1EE10FA7C
:102C80004FF00100F3EC017AE2D5F5EEC07AF1EEF7
:102C900010FADDDDF5EE407AF1EE10FA01F10101F6
:102CA000E5D19A42CDD1002841F0048007EE901A78
:102CB0005FED486A94EDB80AA84BCAF8AC1DB8EEAF
:102CC000676ADBED007A86EE267AF4EEC07AF1EEE2
:102CD00010FA83ED007A40F1A685C4EDB87A94ED40
:102CE000B77AB4EEE77AF1EE10FA40F1918594EDFF
:102CF000A08A9B4BB0EE480A83ED007AFEF7F4FD04
:102D0000002800F03885974BD3ED007AF5EE407A35
:102D1000F1EE10FA00F03C8594EDA08ADFED927A96
:102D2000DBED008AB4EEE78AF1EE10FA40F11E8383
:102D3000B3EE057AF4EEC78AF1EE10FAD4EDB27A6A
:102D400040F18985B7EE007A77EE877ADFED879AD2
:102D5000C4EDB27A0025D4F8D03285498548C4F84C
:102D6000D4324FF42072C4EDB68AC4EDB49A04F0A4
:102D7000D7FB814C8AF8B05D2A460F21032001F071
:102D8000E1FA0120FEF7BAFC002094ED080BFEF7F3
:102D9000B1FCD4E90E670022784B3046394604F086
:102DA000B1FAC0B9D4E908893046394642464B46A3
:102DB00003F088FE002206460F46714B4046494606
:102DC00004F038F802460B463046394604F0C2FAA1
:102DD00008B96C4B236094F840300BB1694B236009
:102DE000A36A0133A362184603F0AAFF02460B460A
:102DF000D4E90C0104F01EF8C4E9080115B0BDECDB
:102E0000088BBDE8F08F77EEA59AB0EE457A69EEB3
:102E1000A29A39EEA99A39EE026AA9EE067A37EE3D
:102E2000217A99EE076A36EE016A99EE067A37EE54
:102E3000207A99EE876A36EE086A2AEE867AB5EE2F
:102E4000C07AF1EE10FA40F2BA8135EEA9AAB0EEDE
:102E5000459A2AEE22AA7AEE0AAA3AEE827AA7EEDA
:102E60002A9A39EE219A9AEE897A37EE017A97EE0C
:102E70002A9A39EE209A99EE0A7A37EE087A27EEE6
:102E8000069AB5EEC09AF1EE10FA40F28F8175EE17
:102E90008A9AB0EE459A69EEA29A79EEA9AA3AEE1C
:102EA000826AAAEE869A39EE219A9AEE896A36EEFD
:102EB000016A9AEE869A39EE209A99EE896A36EE80
:102EC000086A26EE079AB5EEC09AF1EE10FA40F2C3
:102ED000648135EEA9AAB0EE459A2AEE22AA7AEECE
:102EE0000AAA3AEE827AA7EE2A9A39EE219A99EE48
:102EF0002A7A37EE017A97EE2A9A39EE209A99EEDD
:102F00000A7A37EE087A26EE079AB5EEC09AF1EE05
:102F100010FA40F23481B0EE656AF0EE4A5AFFF7DB
:102F2000E5BB76EEA49AB0EE457AA6EEA97A0A46FB
:102F300037EE04AAB0EE697A96EE8A7AB0EE4A6A63
:102F400037EE237A96EE876AF0EE476A36EE036A2A
:102F5000D5EE866AE0EE226AFFF70ABBF42900206C
:102F6000F829002068100020000000420000000046
:102F7000A01D002078160020301600200000F0BFB1
:102F80000000B03C347B0008E34B203B03F1200100
:102F900001F16C0701F1680001F1700E01F1740894
:102FA00001F1780901F17C0B80314FF0000C0291A6
:102FB0000431624603F184060391F7EE005A01974B
:102FC00085EEA67AD3ED087AB1EE477A002A00F0B2
:102FD000B98096ED006A93ED075A012AE6EE057A6C
:102FE00000F0B080D0ED004A93ED065A022A4FEA75
:102FF0006201E4EE857A39D0019D93ED055AD5ED55
:10300000004A032AE4EE857A30D0DEED004A93EDE3
:10301000045A042AE4EE857A28D0D8ED004A93EDCC
:10302000035A052AE4EE857A20D0D9ED004A93EDC3
:10303000025A062AE4EE857A18D0DBED004A93EDB9
:10304000015A072AE4EE857A10D0029F93ED005AC8
:10305000D7ED004A092AE4EE857A07D1039FAE4DE9
:10306000D7ED004A95ED005AE4EE857A012967EE26
:10307000877AB0EE657AA7EEE77AB0EE465A66EE4A
:10308000876A93ED207AA7EE875A86ED005A93ED72
:10309000207AA7EE867A83ED207A34D090ED006A0C
:1030A00093ED1F7AB0EE465AA7EE875A022980EDBB
:1030B000005A93ED1F7AA7EE867A83ED1F7A22D00D
:1030C000019F93ED1E7A97ED006AB0EE465AA7EE87
:1030D000875A042987ED005A93ED1E7AA7EE867A67
:1030E00083ED1E7A0FD19EED006A93ED1D7AB0EE4E
:1030F000465AA7EE875A8EED005A93ED1D7AA7EE39
:10310000867A83ED1D7A0132BCF1000F26D0834F01
:10311000511007EB810191ED007AA7EE877A0A2A18
:1031200003F1040381ED007AC3ED207A1FD085EE10
:10313000A67A4FF0000CD3ED087AB1EE477A002A58
:103140007FF447AF67EE877AB0EE657AA7EEE77A4D
:10315000013266EE876ABCF1000FD8D10A2AC3EDAE
:10316000217A03F1040302D04FF0010C28E76C4BE5
:10317000019F4FF07E5243F8282CFFF70AB9F0EE7A
:103180004A5AB0EE69AAF0EE476AB0EE467AB0EE5F
:10319000656AF0EE4A5AFFF7A9BAF0EE466AF0EE19
:1031A000695AB0EE476AF0EE4A9A92E6F0EE476A44
:1031B000F0EE4A5AB0EE467AB0EE69AA67E6F0EE53
:1031C000466AF0EE695AB0EE6A6AF0EE679A3CE63B
:1031D000F0EE476AF0EE6A5AB0EE497AF0EE4AAA8B
:1031E000FFF780BAF0EE496AF0EE4A5AB0EE479A1D
:1031F000B0EE6AAAFFF754BAF0EE476AF0EE6A5AE8
:10320000B0EE497AF0EE4AAAFFF728BAF0EE496A22
:10321000F0EE4A5AB0EE6A9AB0EE67AAFFF7FCB930
:1032200004F21C513F4B0B600A4604F224513E4FFE
:103230000B6004F5A46304F5A5611F6004F22C572C
:10324000DFF8F0C03948086004F20C53C7F800C03A
:10325000012104F5A060C4F8E86484F8E46402F095
:10326000F7FB04F2BC5300274FF0040C012140206F
:103270001F604FF4207284F8E415C4F888053146C5
:10328000C4F88CC5C4F8346584F83065C4F8B065FA
:1032900084F8AC6520461193C4F8C46584F8C06511
:1032A000C4F8D46584F8D065C4F8946584F8906552
:1032B00004F041F93146282204F5217004F03BF96D
:1032C0001B4BC4F8AC721A68C4F8B0724FF07E534E
:1032D000C4F8CC32C4F8D032C4F8D432C4F8B472D2
:1032E000C4F8B872C4F8BC72C4F8C072C4F8C4722E
:1032F000C4F8C872C4F8D872C4F8DC22C4F8E0225A
:1033000004F5397304F2E44143F8042B9942FBD1EC
:10331000F7EE007AFEF72BBF042900206429002075
:103320008C290020DA616D3F1060EDBF0EF6F33F8F
:103330006C100020AB5169BF994E06F1080306F1ED
:103340000408059306F10C03069306F1100302939B
:1033500006F11403039306F11803019306F1200309
:1033600006F11C0904931D46FFF76FBAB4EE678A95
:10337000F1EE10FA00F0608294EDAB9AD4EDAC7AE5
:10338000079A884BD2ED005A53ED026A94EDAE7A5B
:10339000099377EEE57A1A4617EE901A9B4637EEB8
:1033A000667A43F8041FF3EE055A79EE686A0A93C9
:1033B000F4EEE58A17EE103AF1EE10FA94EDB46AE5
:1033C0004BF8083FC2ED006A40F114830023F7EE8A
:1033D000007AB4EE676AF1EE10FACAF8A83D16D189
:1033E000F0EE007A79EE277AF4EEE87AF1EE10FA50
:1033F00040F1CD83F3EE057AF4EEE78AF1EE10FAB0
:1034000040F3C5830123CAF8A83DB7EE006A94EDE6
:10341000B37AF7EE007AB4EE677AF1EE10FA40F084
:10342000A48094EDB57AB4EE677AF1EE10FA40F02C
:103430009E80B4EE676AF1EE10FA40F098802BBBE4
:1034400094EDB67A38EEC77AF0EE086AB0EEC77A35
:10345000B4EEE67AF1EE10FA00F28B8094EDB17AD8
:1034600037EE277AF1EE006AB4EEE67A0123F1EE48
:1034700010FACAF8A83D88BF002384EDB17A92BF44
:10348000C4EDB37AC4F8C432C4F8CC3294EDAF7A48
:10349000F2EE047AB4EEE77AF1EE10FA40F34483E8
:1034A000D4EDB67A78EEE77AB0EE087AF4EEC77A21
:1034B000F1EE10FA00F23883DFED3B7A0025F0EEF2
:1034C000679AC4EDAF7AF0EE087A79EE277AF4EED7
:1034D000E87AF1EE10FA40F33881DFED347A139B8D
:1034E000B4EEE78AF1EE10FA93ED00AA64DDDAF8A3
:1034F000A83D83B91AEE100A03F044FC24A3D3E9D3
:10350000002303F009FFDFED287A002818BF00250B
:1035100018BFF0EE679AF6EE087AB4EEE7AAF1EE7D
:1035200010FA51D4224B93ED00AAB4EEC9AAF1EEE1
:1035300010FA40F31581089B186803F023FC16A3CA
:10354000D3E9002303F0E8FE002800F009810023FE
:1035500084EDABAAC4F8C032FFF7FDBB154B1A606F
:1035600043F8042F1393FFF7EFB9C4EDB37A002BA0
:103570008CD1D4EDAF7ADFED0C9AB7EE007A77EE0E
:10358000877A0025C4EDAF7A9DE700BFAFF30080D6
:10359000333333333333E33F7DC1250200C0643F0F
:1035A00094290020FC2900200000000000000043B6
:1035B000F8290020E0290020F6EE087AB4EEE7AA08
:1035C000F1EE10FA40F1C180089B186803F0DAFBB5
:1035D000F6A3D3E9002303F09FFE002800F0B58096
:1035E000D4EDB07AB7EE007A77EE877AB3EE047A4C
:1035F000F4EEC77AF1EE10FAC4EDB07A40F106832A
:103600000A9BDFEDDF6ADFEDDF7AC3ED006A099B1D
:103610009FEDDD6A9FEDDD5ACBED007AB6EE087ABC
:1036200083ED007AF5EE005AD4EDAC0A079B94EDD9
:10363000AE0AD74AD4EDA14A94EDA21AD4EDA31A4A
:1036400094EDA42AD4EDA73AD4EDA52A94EDA84A86
:1036500094EDA63A27EE099A27EE207AD3ED000AD8
:1036600066EE806AA0EEA57A0A23A5EEA89AD2EDAE
:10367000005A059A84EDAC7AE5EE856A67EEA44AB5
:1036800027EE811AB0EE647AD2ED004A069AD6EDA2
:10369000005A92ED005A97ED000A029AC4EDAE6A04
:1036A000F0EE416AE6EE256A67EEA11AD2ED005A05
:1036B000D8ED000A039AC4EDA26A27EE822AA6EE8C
:1036C000007A67EEA33A92ED001A019A84EDA17A8E
:1036D000E6EE201AA6EE242AF0EE636A92ED007A56
:1036E00084EDAB9A67EEA22A27EE844AE6EE016AE1
:1036F00027EE833AE6EE052AA6EE074AC4EDA31AA2
:1037000084EDA42A94EDA97A94EDAA5A049AC4ED02
:10371000A76AA6EE253ACAF8A83D27EE877AD9ED22
:10372000005AD2ED006A94EDA08AC4EDA52A67EE96
:10373000857AA5EE867AE6EE867A84EDA63A84ED61
:10374000A84A84EDA97AC4EDAA7ADFED927A924B69
:10375000B4EEE78AF1EE10FA93ED00AA3FF7E5AE7A
:10376000F2EE047A7AEE277AF4EEC97AF1EE10FAE4
:103770007FF5F1AAEBE6B0EE480AFEF79BF80028C9
:103780007FF4C1AAB5EE408AF1EE10FA40F017823C
:10379000824D83494FF4FE72284603F0C1FED4F8EF
:1037A000E0328048C5F8FC3129464FF4007203F03E
:1037B000B7FE94EDB90AFEF797F8002840F0BF81F4
:1037C000D4EDB96A05F21C630993C3ED006A0123C5
:1037D00003F1B902B0EE667A04EB82020021F2EC4A
:1037E000017AF4EEC77AF1EE10FA03F1010344BF57
:1037F000B0EE677A0121802BF1D1002940F07D8263
:10380000694BC4EDB76A1B68C4F8E032FFF784BAAD
:10381000B0EE670AFEF768F8002800F0B48194ED76
:10382000B77AFFF764BAFEF75FF8002840F0A78187
:10383000D4EDB87AFFF753BAD4EDAD7AB2EE049A6C
:10384000B2EE087A37EEC99A77EEC77A84EDAB9A72
:10385000C4EDAC7A94E5F7EE009A4D4BD4EDAE5A38
:1038600093ED002A059B039A93ED004A069B94ED85
:10387000A16AD7ED002AD4EDA21AD4EDA36AD3ED44
:10388000004A94EDA47A029B96ED003AD8ED003AF6
:1038900094EDA81A93ED005A94EDA59A94EDA60A1A
:1038A000D4EDA70A079B38EE698A012578EE677A7E
:1038B000A7EEA52AD2ED005A019AC3ED007AE7EEF1
:1038C000862A0A2392ED006AA7EEA13AE7EEA63A0D
:1038D000A7EE874AD4EDA91A94EDAD7AD9ED006A26
:1038E000A1EE276AB0EE681AE7EEA16AE7EE894A10
:1038F000A7EE805AE7EEA05AA7EE871A37EEA97A0C
:10390000C2EE071A82EE872AC3EE072A83EE873AB1
:10391000C4EE073A84EE874AC5EE074A85EE875A19
:10392000C6EE075A86EE876AC1EE076AC4EDAE1A84
:1039300084EDA12AC4EDA22A84EDA33AC4EDA43AF1
:10394000049AC4EDAD6A84EDA96AD2ED006A94EDE3
:10395000AA6A84EDA54AE7EE866ACAF8A83DC4EDD6
:10396000A64AF0EE667AC7EE876A84EDA75AC4EDE0
:10397000A85AC4EDAA6AFFF7EEB900BFAFF3008002
:10398000CDCC4C3F9A99193FCCCCCC3ECCCC4C3EC4
:10399000F429002000000043F8290020E023002043
:1039A000601900205C1900206C1000207DC12502E8
:1039B00000C0643F4260E53A89D25E3A0AF294BBA5
:1039C000A4EC973A666696C000800946333343C13B
:1039D000FAED6B3A2FBAE8C1B22E9AC09A99A9C0F3
:1039E00000C05A46D4B66D3FE948923F62DB363F8D
:1039F000922409C05FED114A1FED115A089BA7EEF2
:103A0000245AD3ED005AF4EEC55AF1EE10FA00F341
:103A100089805FED164A1FED165AA7EE245AF4EE80
:103A2000C55AF1EE10FA7DDCFBEE094AB9EE045AF4
:103A3000A7EE245AF4EEC56AF1EE10FA72D4F3EE52
:103A4000044AB9EE085AA7EE245AF4EEC56AF1EE1C
:103A500010FA67D41FED255AF4EEC56AF1EE10FA9C
:103A600060D45FED274A1FED275AA5EEA45AF4EE65
:103A7000C56AF1EE10FA55D41FED2B5AF4EEC55A73
:103A8000F1EE10FA4EDCF3EE094AB9EE0C5AA7EE4D
:103A9000245AF4EEC57AF1EE10FA43D45FED334ABE
:103AA0001FED335AA7EE245AF4EEC57AF1EE10FA60
:103AB00038D41FED367AF4EEC77AF1EE10FA31D42D
:103AC0001FED395ABAEE0F7AA5EE857AF4EEC77A71
:103AD000F1EE10FA26D45FED3D5A1FED3D7AA6EEC9
:103AE000A57AF4EEC77AF1EE10FA1BDCFFEE085A65
:103AF000BAEE027AA6EEA57AF4EEC77AF1EE10FAE3
:103B000010D45FED465A1FED467AA6EEA57A002343
:103B1000F4EEC77AF1EE10FA7FF559ACCAF8A83D79
:103B2000012374E40023F9E70023F7EE009AC4F8B8
:103B3000BC320125C7E406F10803059302E4022321
:103B4000CAF8A83D04E00133802BCAF8A83D22DC66
:103B500004EB830393EDB80AFDF7C6FEDAF8A83D3F
:103B60000028F0D1BBB104EB8302D2EDB86A744AED
:103B700009927F2BC2ED006A7FF72AAE40E6DBEDAB
:103B8000007AFFF7AAB894EDB87AFFF7B0B8B7EEAD
:103B9000006A00233BE4D4EDB96A694BC3ED006AC7
:103BA0002EE609F1040304931D46FEF74EBE06F10E
:103BB0001003029306F114030393FFF7CCBB18EE36
:103BC000100A03F0DFF89FED5C1B41EC100B01F0D5
:103BD000A7FF51EC100B03F0FDFB07EE900AF5EE8A
:103BE000407AF1EE10FA3FF4D3ADB5EEC08AF1EEB3
:103BF00010FA7FF591A8B2EE007A77EE877AFFF798
:103C000085B806F114030393FFF7A5BBB3EE0E7A54
:103C1000F4EEC77AF1EE10FA14D5099B9FED497ABC
:103C2000DFED496A83ED007ADFED487A0A9BCBED40
:103C3000007AC3ED006A9FED466A9FED465ADFEDBC
:103C4000465AF1E49FED457AF4EEC77AF1EE10FAA8
:103C500014D5099B9FED427ADFED426A83ED007A2D
:103C6000DFED417A0A9BCBED007AC3ED006A9FED50
:103C70003F6A9FED3F5ADFED3F5AD5E49FED3E7A14
:103C8000F4EEC77AF1EE10FA1BD5099B9FED3B7A53
:103C9000DFED3B6A83ED007A0A9B9FED3A5AC3ED54
:103CA000006AF6EE087ACBED007AB5EE006ADFED39
:103CB000365AB9E4F0EE477A119BC3ED007AFEF76D
:103CC000F5BF9FED327AF4EEC77AF1EE10FA9FED70
:103CD000307A18D5099BDFED296A83ED007A0A9BBB
:103CE0009FED295AC3ED006AF6EE087ACBED007A13
:103CF000B5EE006ADFED275A96E4099BF0EE476ABD
:103D000083ED007A7CE5099BDFED234A83ED007AA1
:103D10000A9B9FED225ADFED1F5AC3ED004AB6EE13
:103D2000086AF0EE467A8BED006AF0EE646AB5EE52
:103D3000006A79E4AFF3008000000000000020403A
:103D4000FC2900203333733F1F856B3F6666263F97
:103D50003433B33E08D7A33DD0CC4C3D00002042C5
:103D6000EC51783FD7A3703F3333333F9A99993E54
:103D700090C2753D80C2F53C00004842A4707D3F72
:103D80008FC2753F10D7233D00D7233C00007042FF
:103D900052B87E3F00D7A33BEE7C7F3F0012033B2F
:103DA0002DE9F0433C4C3D4F3D4E3E4D83B0082045
:103DB000FDF754FD20464822002103F0BCFB3A4B9E
:103DC0003A483B49E0600022C4E90E23394A3A4BA5
:103DD000A2603A4A22610FF2B809D9E9008904F1D8
:103DE000180237489A60606104F1200204F108006B
:103DF0005860DA601960C1E90066384640F6B4528E
:103E000000216360C4E90C8903F095FB28464FF458
:103E1000BD62002103F08FFB2A4EDFF8B8C0A66117
:103E200007F54063009300242748284A2849C6F82C
:103E300004C016233360B060F260316101230A22AE
:103E40004FF47A6174614FF4FA50C6E90644C6E94A
:103E50000844FEF7FDF803231846CDE9004401228B
:103E60004FF4004100F04AFA012385F8E44585F853
:103E7000E43485F8D03585F8C03585F8903585F877
:103E8000AC3585F8303503B0BDE8F083AFF3008082
:103E90007B14AE47E17A843F30160020601C00207E
:103EA0002C7B0008781600200000F0BFB4F683C514
:103EB000580F00206FF9025D440F00206961C0BEF9
:103EC00070E29C041C0F0020BC00002004000020B5
:103ED0006C010020140100202A4B93F8302552B9C0
:103EE000D3F8342501218A4208BF022283F8301515
:103EF00008BFC3F8342593F8AC2552B9D3F8B025E0
:103F000001218A4208BF022283F8AC1508BFC3F81A
:103F1000B02593F8902552B9D3F8942501218A420F
:103F200008BF022283F8901508BFC3F8942593F8C0
:103F3000C02552B9D3F8C42501218A4208BF022204
:103F400083F8C01508BFC3F8C42593F8D02552B92B
:103F5000D3F8D42501218A4208BF022283F8D01564
:103F600008BFC3F8D42593F8E42452B9D3F8E82461
:103F700001218A4208BF022283F8E41408BFC3F873
:103F8000E82470477816002002683649002310B4F0
:103F900022F00102212488420260036043608360B2
:103FA000C3600361446131D02F4B984234D02F4B12
:103FB000984238D02E4B984240D02E4B984244D055
:103FC0002D4B984236D02D4B984242D02C4B9842E4
:103FD00017D02C4B984240D02B4B98421CD02B4BE7
:103FE000984220D02A4B984228D02A4B98422CD075
:103FF000294B98421ED0294B98422AD0284B9842F0
:1040000007D14FF03D5243F8AC2C02E0254B3D2246
:104010009A605DF8044B70474FF4746243F8202CAB
:104020005DF8044B70474FF4741243F8382C5DF878
:10403000044B70471C4A43F87C2CEAE74FF074624B
:1040400043F8502C5DF8044B7047184A43F8642C31
:10405000DFE7174A43F8942CDBE73D2243F8082CAE
:10406000D7E700BF10600240286002404060024075
:10407000586002407060024088600240A0600240C8
:10408000B86002401064024028640240406402406C
:10409000586402407064024088640240A064024098
:1040A000B864024000600240400F00203D00002044
:1040B00000003D200B6870B4D1E90524CD682B4386
:1040C0001343D1E9072523431343D1E909422B4385
:1040D000D1E90D652343134304680B4A334322405F
:1040E0002B4313430360D1E90B3442690D6922F07D
:1040F000070223431343D1E90142436145608460D1
:10410000C26070BC704700BF3F801CF0036819B9E3
:1041100023F001030360704743F00103036070471D
:10412000406880B2704700BF036819B923F4802348
:104130000360704743F48023036070470AB9C1608D
:1041400070470161704700BF0068C0F3C04070470E
:10415000006800F0010070470B060CD54369AAB156
:1041600043F08003802943610FD0036801F01E01F2
:10417000194301607047802907D0002AF5D10368F0
:1041800001F01E0123EA01010160704723F0800362
:1041900080294361F3D1704730B4114B114D124A5D
:1041A00021F0F02424F0C314A84298BF1A469CB111
:1041B000006800EAD12000F01E0388004CBF506860
:1041C000106821F0F02121F08211084002D0181C63
:1041D00018BF012030BC7047436903F08003ECE74F
:1041E000006002400F6402400064024030B4084B9B
:1041F000084D094C21F0F022A8428CBF18462046F9
:1042000022F082128B004CBFC260826030BC7047CB
:10421000006402400F640240006002402DE9F04754
:10422000D1F800C0002301274FF0030E02E0013354
:10423000102B3FD007FA03F232EA0C04F7D15C00EE
:10424000D0F800800E790EFA04F5ED4308EA05086F
:10425000C0F80080D0F800A006FA04F9013E49EA4F
:104260000A09012E0EFA04F8C0F8009016D8D0F80A
:1042700008904E7905EA09058560D0F808908D7997
:10428000A64046EA09068660466826EA02024260BF
:10429000466805FA03F292B232434260C568CA79B1
:1042A00025EA0805C560C568A24001332A43102BE2
:1042B000C260BFD1BDE8F0874FF6FF720023C0E9AE
:1042C000002370470AB9418370470183704700BFDC
:1042D000CB0800EB830001F0070110B4036A8900EA
:1042E0000F248C4023EA04030362036A5DF8044B45
:1042F00002FA01F119430162704700BFF0B583B0C3
:1043000000249DF8207062F3070463F30F249DF8E6
:104310002420012305460E4603FA00F0194667F3F0
:10432000174462F31F6400F07DF8054B009653F8C4
:10433000250001946946FFF771FF03B0F0BD00BF8F
:10434000E07C000810B40123044C03FA01F154F896
:1043500020005DF8044B89B2FFF7B4BFE07C000891
:10436000054B5A69002042F400725A610521D87742
:104370004FF48070FDF742BD00ED00E0014B186086
:10438000704700BF680047421F4A936803F00C0360
:10439000042B10B434D0082B19D01C4B03601A4ADC
:1043A0001B499468C4F303140C5DE34043609468B4
:1043B000C4F382240C5D23FA04F4846092685DF8EF
:1043C000044BC2F342328A5CD340C36070475468E6
:1043D000516852686302C2F3881201F03F014CBF7A
:1043E0000C4B0A4BB3FBF1F303FB02F3064A526892
:1043F000C2F3014201325200B3FBF2F30360CEE795
:10440000044B0360CBE700BF003802400024F400F7
:104410008801002000127A00014B1860704700BF2D
:104420005C014742044A136B19B923EA0000106388
:10443000704718431063704700380240044A136CF9
:1044400019B923EA000010647047184310647047DC
:1044500000380240838B29B923F480631B041B0CB2
:104460008383704743F480638383704783881AB9DA
:1044700023EA01018180704719438180704700BFA2
:10448000028AF0B592B20446C8880D4622F4405222
:1044900002438989AB882F892282A6896889254AA7
:1044A0003B43324003431343A381A38A9BB223F4CB
:1044B00040730B4385B0A3826846FFF765FF1E4B30
:1044C0009C4205D003F580639C4201D0029B00E032
:1044D000039BA2892968194D100403EB8303A28969
:1044E00003EB83034CBF49008900B3FBF1F1A5FB4B
:1044F000013040096423120403FB10134FEA00103B
:104500000AD41B013233A5FB0323C3F34313034334
:104510009BB2238105B0F0BDDB0003F13202A5FBA5
:104520000223C3F3421242EA00039BB2238105B087
:10453000F0BD00BFF3E9FFFF001001401F85EB5104
:1045400000234FF416514FF440220160C0E90132BC
:1045500083817047838929B923F400531B041B0C02
:104560008381704743F4005383817047838A1AB96B
:1045700023EA01018182704719438182704700BF9D
:10458000FEE700BF0B4A136883B1073018440A499D
:1045900020F00700884202D2106018467047074B8F
:1045A0000C221A604FF0FF3318467047044B13601B
:1045B000EBE700BF600F002000000110142A00206C
:1045C000402000103849394BD1F88820384842F44F
:1045D0007002C1F888201A68002142F001021A60B6
:1045E00099601A6822F0847222F480321A6058604E
:1045F0001A6882B022F480221A60D9600091019179
:104600001A6842F480321A601A4603E0009BB3F540
:10461000A06F09D0136803F400330193009B0133AA
:104620000093019B002BF1D0204B1B6813F4003347
:1046300018BF01230193019B012B05D01A4B4FF0AA
:1046400000629A6002B07047184B1A491A6C1A48F7
:1046500042F080521A640A6842F480420A609A6802
:104660009A609A6842F400429A609A6842F4A052B2
:104670009A6058601A6842F080721A601A68920153
:10468000FCD50E49094A40F205600860996821F09E
:1046900003019960996841F002019960936803F001
:1046A0000C03082BFAD1C9E700ED00E00038024006
:1046B000103000240070004008544007003C0240C5
:1046C000164A936803F00C03042B24D0082B0AD05D
:1046D000134B124A134892681349C2F30312825CC7
:1046E000D3400B6070475068516852684302C2F370
:1046F000881201F03F014CBF0C4B094BB3FBF1F3A7
:1047000003FB02F3054A5268C2F301420132520030
:10471000B3FBF2F3DDE7054BDBE700BF00380240F7
:104720000024F40098010020A801002000127A0063
:104730002DE9F04FC300684C1F1A83B004EB071734
:1047400000937B68002B8146884624DD4FEA810B6D
:10475000ABF1040301930025BB6803EBC503B8F17B
:10476000000F5E6810DD019BA6F1040A06EB030B47
:104770005AF8042F32B1506802F0CAFEDAF800008D
:1047800002F0C6FED345F3D1304602F0C1FE7B688D
:1047900001359D42E0DB009BA3EB090604EB061606
:1047A000B06802F0B5FEF068B8B1B8F1000F12DDE4
:1047B000002500E0F068C5EBC50300EB8300013580
:1047C000806802F0A5FEA845F4D1009BA3EB090385
:1047D00004EB0313D86802F09BFE009BA3EB0905D2
:1047E00004EB0515A86902F093FE686902F090FEDB
:1047F000686D18B102F08CFE00236B65009BA3EB83
:10480000090304EB0313D86D08B102F081FE009B8D
:10481000324EA3EB090004EB001001239FED2C7B2B
:10482000436316F80930002580ED107B80F8205096
:10483000C0E90A5505638563C0E91255C0E91455FE
:10484000C0E91655C0E91855C0E91A552BB17022B8
:10485000294602F070FE06F80950009BA3EB0905FB
:1048600004EB05150026686DEE60C5E90166C5E933
:10487000056618B102F04CFE009B6E65A3EB0903C0
:1048800004EB0313D86D08B102F042FE0099A1EBCE
:10489000090904EB091400220023C4E910230023B2
:1048A0000122626384F82030C4E90A332363A363DE
:1048B000C4E91233C4E91433C4E91633C4E9183324
:1048C000C4E91A3303B0BDE8F08F00BFAFF3008036
:1048D0000000000000000000680F0020AC01002074
:1048E0002DE9F0430C46836854F8047B1B68002FC5
:1048F00085B0D3F81080D3F8049024DD002620681A
:104900006168A268E368D8F804C06D460FC503016A
:104910000CEB0301039A5CF8030059F8223004F110
:1049200010058C684FEA430C29467CB1DDE901345F
:1049300004FB0CF42246013603FB0C0002F0F0FDF0
:10494000B7422C44DBD105B0BDE8F083DDE90114AA
:1049500004FB03F4224601FB03000136294602F062
:10496000DFFDBE422C44CAD105B0BDE8F08300BFD4
:104970002DE9F041244D2B5C0646002B36D1234C0B
:104980004FEAC008A8EB060504EB05150027686D83
:10499000EF60C5E90177C5E9057710B102F0B8FD10
:1049A0006F65A8EB060304EB0313D86D08B102F0A2
:1049B000AFFDA8EB060004EB001000220023C0E9C5
:1049C000102300230122426380F82030C0E90A331B
:1049D00003638363C0E91233C0E91433C0E91633BB
:1049E000C0E91833C0E91A33BDE8F0814FEAC008C6
:1049F000064CA8EB000004EB00107022002102F02E
:104A00009AFD0023AB55BDE7AC010020680F0020E4
:104A1000044BC0EBC00203EB02135B680BB1FFF762
:104A200087BE7047680F0020084BC0EBC00003EB47
:104A30000010052290F82030043B012B04D84FF0E1
:104A4000FF3380F82020C362704700BF680F00204A
:104A50002DE9F04F8FB01D460693DB00894E07937A
:104A60005B1B1B01F41803906068F5509246089197
:104A7000002840F0E180DDE906239C1A814ADAF83B
:104A80000030099302EB041418460821636002F019
:104A9000F1FCA060002800F0C380099B002B0AF104
:104AA000040A7DDD031D049300230593039BDAF8BC
:104AB00000201B68049C53F82230DAF8045044F8B4
:104AC000043C04210898029502F0D4FC0190206077
:104AD000002800F0A580002D0AF1080A57DD002308
:104AE000009305E0009B029A01339A4200934ED056
:104AF0000C210120DAF8004002F0BCFC019B80464A
:104B000043F82400002800F08B80DAF80490C0F805
:104B10000090B9F1000F0AF1080AE3DD08214846C8
:104B200002F0A8FCC8F80400002879D0039BD8F84C
:104B30000870D3F808B0064600EBC90E5546286841
:104B40006968AA68EB68DBF800C00AAC0FC4DCF83F
:104B50000C20DCF8041052680301D018103584686A
:104B6000D0580D9B51F8233004B15B00DDE90B12E6
:104B700002FB03F201FB0303726033600836174443
:104B8000B645C8F80870DAD10AEB091AAAE7049A00
:104B9000059B08320492099A01339342059385D10B
:104BA000089D1C21284602F065FCDDE90612A2EBF7
:104BB0000108344A02EB0818002D0446C8F80C001E
:104BC0002B465BDDDAF800000028054628DB0026CE
:104BD0000AF1040A3746994613E0A56028460023E7
:104BE000B145E060C6EBC6026560206163612FD00D
:104BF000DBF80050D8F80C40002D04EB82040FDBEA
:104C0000284601230AEB860B002D18BF01372360CD
:104C10001E44002DE1D002F073FCA0600028DED11C
:104C2000DDE906239B1A174A02EB03135B683BB9C5
:104C300001200FB0BDE8F08F2846FFF779FD1AE795
:104C400006980899FFF774FD01200FB0BDE8F08FBA
:104C5000069A3801079B9D1A0A4B03EB05150024A1
:104C60002C6102F04DFCA8610028D9D0B80002F0F8
:104C700047FC68610028D3D02046DAE700200746C9
:104C80000A46E7E7680F00202DE9F04FD700BB1A6E
:104C9000DFF878911B018BB009EB030401930B68DB
:104CA00063624B68A3628B68E362CB682363D1F8CD
:104CB0001080C4F85080B8F1000F164601F11405B9
:104CC00020DC2B6833F0020203F1FF330CBF01221A
:104CD0000022BE1B012B09EB06168CBF002301230B
:104CE000C6E90D23019B55F8040F403369689944C8
:104CF000A9E80300336B002B7ADB002070660BB051
:104D0000BDE8F08F4FEAC80382461846029302F0CE
:104D1000F7FB05906065002871D0029BD4F858B06D
:104D200003950344AC461D46334604975E46029401
:104D3000864627469B46DCF80000DCF80410DCF8C9
:104D40000820DCF80C3006AC0FC4DAF808301A681A
:104D5000D16854684A6803461B01D11809988968CC
:104D6000D35854F820200CF1100C01B15200DDE9A9
:104D7000070101FB02F100FB0233CEF80410CEF86C
:104D800000300EF1080E0E447545BE65D3D15B466A
:104D9000B3465846039D049F1E4602F0B1FB029B9A
:104DA00005EB0815D86500288BD1059802F0B0FBFB
:104DB000BE1B09EB06190023012000240025C9E9C8
:104DC000104589F82030C9E90A33C9F83030C9F8EC
:104DD0003830C9E91233C9E91433C9E91633C9E9CE
:104DE0001833C9E91A33C9F834000BB0BDE8F08FA5
:104DF00000205B42736630630BB0BDE8F08FE06D5E
:104E00000028D5D002F084FBD2E700BF680F002055
:104E1000F0B4C600134D144A331A05EB03130024F3
:104E20000029DC64147010DDDB68C1EBC10103EB09
:104E3000810101275A68002A04DD9A68DA605C6102
:104E40001A611F601C338B42F4D1301A05EB00103D
:104E50000023022280F82020836403668366F0BC6E
:104E6000704700BF680F0020640F0020084BC0EBA4
:104E7000C00203EB021310B45A68002483F82040E8
:104E800012B95DF8044B70475DF8044BFFF750BC56
:104E9000680F00200B4BC0EBC00003EB001090F834
:104EA000203033B1042B05D9052B0AD14FF0FF3345
:104EB000C36270474FF0FF320523C26280F8203092
:104EC00070477047680F00200C4BC1EBC10103EB2A
:104ED0000113C0EBC000D96880000B1830B45A69C8
:104EE0001A611A69DB68064CD31AB3FA83F30125F9
:104EF0005B0925700B5030BC704700BF680F002065
:104F0000640F00202DE9F04F99B0CB00B84A01930F
:104F10005B1A02EB03170E4697F82030F9680490ED
:104F2000C0EBC0029200022B039102928DED100B98
:104F300001EB020B00F0B080042B64D019B0BDE887
:104F4000F08FFA6D0792002B40F3FE810023069349
:104F5000CDE90BB606990A977B6D3A6E53F831503E
:104F6000089503EBC1035B680993002A00F0D78121
:104F7000DB08D7E910AB059300F0D1817C6B002CE6
:104F800040F0EF810A9B0D979B6B079E1F4613E035
:104F90005046594602F0B6F930B1D6E900235046E2
:104FA000594602F0B9F9F0B9059BA34206F108068B
:104FB00005F1080500F0B281504659460134002F32
:104FC000F2D0D5E9008942464B4602F0C3F9424689
:104FD0004B460028DCD0D6E900235046594602F063
:104FE000A5F90028E0D0DDE90BB6019B804A9B1BA8
:104FF00002EB03131A6B002A40F06D8204219A6EB3
:1050000083F820109A64DBF80430002B96D00DF161
:105010004C0900221392DBF80CA0C9F80C20C9E956
:1050200001220592DBF81020DBF808401796524564
:10503000234475D2DBF81020A3EB0A01121B0A44AB
:10504000132A079140F388800AF114079F42C0F0A9
:105050005F81C1F11402002ACCBF214600210A92CF
:105060000991A718DBF810200C21BA421491C0F066
:105070008480DDE902125258002A7ED1DBF810301C
:10508000DB1B072B68DD07F1080810AB03CB1423EB
:1050900038607960149393E03B6D002B52D07A6AAC
:1050A00004998A423FF44DAF019B9A1B504B03EB8E
:1050B0000212516E00297FF741AFDBF80430002B5C
:1050C0003FF43CAF906EDBF80840DBF80CA00DF12C
:1050D0004C090022814213922344C9E90122C9F8F4
:1050E0000C20179616D1DBF81000DBF81020406872
:1050F00008300244CBF81020DBF810203C48D21ACC
:105100005CBF1219CBF81020019A921B00EB02121F
:105110000139916601220592DBF81020524589D3AE
:10512000DDE902125258002A84D1DBF81010A1EBFD
:105130000A01132910DDCDE9092214220AF114070E
:1051400007928FE7042387F82030DBF80430002B28
:105150007FF45DAFF2E60B9E059B002B7FF4EEAE75
:10516000019B234A9B1B02EB031301210522D964F7
:1051700083F8202019B0BDE8F08FDBF81020DD1B8C
:10518000121B2A44072AE7DD07F108089845FFF4B7
:105190007CAFC5F10803002B40F3A381384610A96A
:1051A00014272A4604EB03080693149702F0B8F973
:1051B000069B2CB11A4610AB5919204602F0B0F9E3
:1051C000019B0B4A9B1B02EB0313002259681292AE
:1051D00091427FF7B3AE0693049BCDF838A09B00B5
:1051E000404617460C9390460B96CDF83C9006E04F
:1051F000680F002001378F42129780F23D81069B95
:105200009B6853F8372092F9002003EBC703002A6C
:10521000F0D0032AEED05B680C9A53F802A0BAF1E2
:10522000000FE7D0DBE90125DBF8103008F10108B9
:105230008342CDF854802A44C0F0E680DBF8003089
:10524000002B40F0E180DBF810301B1A032B82DDCD
:10525000041D149B129A026004331493DAF8003090
:10526000002B40F3518100260D971BE0DBF8003046
:105270001BBBDBF810301B1B9C453FF76CAF04EBEE
:105280000C03149A58F8071002EB0C0520466246EE
:105290001C46149502F044F9DAF800300136B342A6
:1052A00040F3E380DAF80480DBF81030F70008EB15
:1052B0000702A342D2F804C0D8D2DBE90125DBF80B
:1052C00010302A44A2EB04095B1B4B449C453FF77A
:1052D00042AF04EB0C039A42D3D8ACEB0903002B8A
:1052E000089340F3B580149B58F807106344149357
:1052F000089B20464A46EC1802F012F9002DCBD04C
:1053000058F80710089A4944284602F009F9C3E7FB
:105310000022CDE9092214220792A3E60D9F079CE3
:10532000DDE9081520462A4602F0FAF806993A6D9A
:10533000013125F007032046184491420691079059
:10534000FFF60AAEDDE90BB6019B9A1B704B03EB2F
:105350000212012192F820301166022B3FF4A4AE14
:10536000EAE52E460024079D0DE0D5E900235046CE
:10537000594601F0DBFF00287FF435AE059BA342C0
:1053800005F10805CBD0F6E8028950465946424659
:105390004B4601F0CBFF013440B1D5E90023504624
:1053A000594601F0D7FF00287FF41DAE42464B4618
:1053B0005046594601F0B0FF40B1D5E900235046B0
:1053C000594601F09FFF00287FF40DAEBB6B50469D
:1053D0005946002BD2D056E9028942464B4601F08D
:1053E000B9FF42464B460028BFD15046594601F00E
:1053F00089FF0028C2D0D5E900235046594601F064
:105400008BFF0028BAD0EEE5DBF81030161A5B1BD4
:105410003344032B7FF79FAE041DA2423FF619AF22
:10542000C6F10409B9F1000F149B64DD0433324660
:1054300012A9149305EB090402F072F8002D3FF451
:105440000DAF12AB4A469919284602F069F805E7F4
:105450001A46149B58F80710154463444A462046E0
:1054600014932C4602F05CF816E7069B0D9F5968D2
:10547000DDF854802046BDE64346DDF838A00B9E9B
:10548000DDF83C908046002B3FF458AD079C049912
:1054900016911A23504622464946139302F040F8CB
:1054A000099828B123464B440A9A194602F038F865
:1054B000DDE902120023CBF80C805350059B002B32
:1054C0003FF43CAD019B124A9B1B02EB03139A6E07
:1054D00001329A6632E50321012283F820109A6492
:1054E0002CE52A463846142510A904EB0308149528
:1054F00002F016F864E60433324612A905EB0904FB
:10550000149302F00DF8A9E6069B2046596871E64F
:10551000680F0020F0B4C500234C2B1A04EB0313D2
:1055200093F820201AB1012A03D0032A28D0F0BC16
:1055300070479E6C771C9F64DF6ABE42F7D10027DC
:105540001A4EDF64B94237700FDDDB68C1EBC10171
:1055500003EB81015E68002E04DD9E68DE605F6102
:105560001E611A601C338B42F4D1281A04EB00131D
:105570000022022183F820109A641A669A66D6E700
:105580009A6C196B501C8A429864D0DBD3E91921BC
:10559000002A9964C8BF01224FF0040183F820104B
:1055A000C8BFDA66C3E700BF680F0020640F0020A1
:1055B000094BC0EBC00003EB001090F82030042B27
:1055C00000D07047836C826A01339342836404BFC6
:1055D000052380F820307047680F00202DE9F04F38
:1055E00087B0CB008E46029305915B1A4B4901EBC5
:1055F000031393F8201001910439012906D90022E0
:105600001A61C0E9002207B0BDE8F08F00218A428C
:10561000C0E900111546196167DDD3E9052B0F4676
:105620000E46CDF80CE092460490A9460CE04BF8EB
:1056300004A0D3F814A0D3F818B0CCE90255013671
:10564000B14501F11C012BD0DA6855583C010BEB38
:10565000040C0A44002DF2D1D2F810E0D2F80480F4
:10566000D0684AF827601F69864507F101071F6166
:10567000A0EB0E0ACCF804E05061D8D39268D3F8BE
:1056800014A090440136A8EB0E05801AB1454BF8E2
:10569000045001F11C01D3F818B0CCE90202D3D1B7
:1056A0000498DDF80CE0C0F808A04D46C0E9007B86
:1056B000002FA8D1019B052BA5D1029B184AA3EB73
:1056C0000E04164B03EB04142E46E36A0025013347
:1056D00015704FF0040105AA0DD01F20FBF75EF9ED
:1056E0000123A56484F820308DE7D3E90532C0E9B1
:1056F00000128360DEE72020FBF750F90598074A87
:10570000C0EBC00302EB03135A6883F82050002A51
:105710003FF479AF3146FFF70BF874E7680F0020CC
:10572000640F00202DE9F00F82B0002A00F0DB802A
:1057300001EB42026E4E01928A46A0F1020B002359
:105740005D4618461C4635F8022F315832504FEA54
:10575000D239C3F1400CC3F13F0709FB0CFCC2F383
:10576000803808FB07C8C3F13E09C2F3403707FB86
:105770000987C3F13D0CC2F3003909FB0C79C3F171
:105780003C08C2F3C02C0CFB089CC3F13B07C2F3DE
:10579000802808FB07C8C3F13A09C2F3402707FB7A
:1057A0000987C3F1390CC2F3002909FB0C79C3F155
:1057B0003808C2F3C01C0CFB089CC3F13707C2F3C6
:1057C000801808FB07C8C3F13609C2F3401707FB6E
:1057D0000987C3F1350CC2F3001909FB0C79C3F139
:1057E0003408C2F3C00C0CFB089CC3F13307C2F3AE
:1057F000800808FB07C8C3F13209C2F34007C3F1B0
:10580000310C07FB098702F0010202FB0C72C1F3A5
:10581000C038C1F3803703FB082203FB077703F18D
:10582000020CD719C1F340320CFB027203F10308DA
:10583000C1F3003C08FB0C281F1DC1F3C02207FB6D
:10584000028703F1050CC1F380220CFB027203F105
:105850000608C1F3402C08FB0C28DF1DC1F3002211
:1058600007FB028703F1080CC1F3C0120CFB0272A4
:1058700003F10908C1F3801708FB072803F10A0C9C
:10588000C1F340120CFB028C03F10B07C1F30012B1
:1058900007FB02C203F10C08C1F3C00708FB07278E
:1058A00003F10D0CC1F380020CFB027C03F10E0826
:1058B000C1F3400203F10F0708FB02C201F001012E
:1058C000043007FB01221033102814447FF43BAF4F
:1058D0002301A3F500402AF8020B01998A450BF138
:1058E000080B7FF42CAF02B0BDE8F00F704700BF8B
:1058F000481000202DE9F04790F800E04FEA9308A7
:1059000086681436476808374FEA081902EB090A17
:1059100056ED054A16ED044A56ED033A16ED023AE5
:1059200056ED012ABC4617ED027A17ED016AB8F16F
:10593000000F63D001F1100402F11000454654ED50
:10594000046A54ED037A14ED025A54ED011A24EE60
:10595000A62A32EE072A24EE267A63EE025A77EE62
:10596000255A75EE865A24EEA77A75EE875A63EEAD
:10597000A66A22EE827A36EE877A64EE276A23EEF2
:10598000256A76EE866A77EE266A24EE857A76EECA
:10599000876A63EEA77A22EEA57A37EE877A64EEFD
:1059A000057A23EE266A77EE867A77EE277A24EE5A
:1059B000A17A77EE877A23EE855A22EEA67A35EE23
:1059C000075A24EE216A23EE277A36EE077A35EE5F
:1059D000077A23EEA15A22EEA76A35EE066A00ED99
:1059E000042A40ED035A40ED026A40ED017A10347A
:1059F0001030013DA3D14944544600E0144613F051
:105A0000030017D0F1EC015A64EEA56A76EE876ABE
:105A100064EE257A23EE267A37EE877A37EE067A19
:105A200063EEA55A62EEA67A35EEA76AE4EC016A47
:105A30000138E7D10CED027A0CED016A1436083713
:105A40001146BEF1010E7FF463AFBDE8F08700BFE1
:105A500038B50446826001701D46CA001846002110
:105A600001F069FD656038BD30B52DED048BB0EEF9
:105A7000408AF0EE608A264C8BB000F039F994F938
:105A80000030B0EE409AF0EE609A01332ED053EC25
:105A9000182B51EC180B01F067FC054630BBB0EE3B
:105AA000480AF0EE680A00F01BFE0022194B51EC88
:105AB000100B01F04FFCC8B1174B18480895012294
:105AC000CDE900238DED048B8DED028B00F014FEEB
:105AD00094F90030022B8DED060B0FD0684600F0D4
